:030000000200CC2F
:0C00CC00787FE4F6D8FD7581380201133E
:100297006661696C6520777269746520746F204D9B
:1002A7004350323531355F310D0A006661696C653F
:1002B70020726561642066726F6D204D4350323540
:1002C70031355F320D0A006E6F207265636965769E
:0F02D7006520636D640D0A000D0A797323200002
:02056300C100D5
:0705A100D28AD2A9D2AF22D9
:1001580012058E1205A17F011200267F02120026C9
:100168007BFF7A0279DF1204757B007A0079081226
:1001780003FDEFC39401500A7BFF7A0279CE7D110B
:1001880080397B007A0079087D011202E6EFC3947A
:1001980001500A7BFF7A0279977D1B801E3000FD93
:1001A800C2007B007A0079127D0212023DEFC394EF
:1001B80001500D7BFF7A0279B27D1C12043A80A0AF
:0D01C8007B007A0079127D0A12043A8093C0
:03001300020010D8
:03001000D20032E9
:1004A5008F30E530B4010BC292FD7FC0120003D23C
:1004B5009222E530B4020AC297FD7FC0120003D232
:0204C50097227C
:020026008F2F1A
:100028001204A57F017E00120547AB2F7D447F2A6D
:10003800120334AB2F7DBA7F29120334AB2F7D47CF
:100048007F28120334AB2F7D117F30120334AB2F7E
:100058007DFF7F31120334AB2FE4FD7F321203346E
:10006800AB2FE4FD7F61120334AB2FE4FD7F6212F6
:100078000334AB2F7D607F60120334AB2F7DFFE428
:10008800FF120334AB2FE4FD7F01120334AB2F7D45
:10009800FF7F20120334AB2F7DFF7F21120334AB87
:1000A8002F7D017F2B120334AB2FE4FD7F2C12032D
:1000B8003412032EAD2F7F0E1203BBEF54E0600302
:0300C80012032EF2
:0100CB002212
:0802E6008D328B2F8A30893123
:1002EE00E4F5331201D56035AB2FAA30A931853331
:1002FE00827583001201EEFD600EE5332436FFABEE
:10030E0032120334053380E0AB32AD337F35120346
:0F031E00347B017D197F30120334AF33227F000F
:01032D0022AD
:08023D008B2F8A3089318D32CC
:10024500E4F5347F2C1203BB8F35E53530E040AD46
:10025500327F651203BB8F3353330FE534C39533B8
:10026500501EE5342466FFAD321203BBAB2FAA3016
:10027500A931853482758300EF12021B053480DBBA
:10028500E53554FEFDAB327F2C120334AF33227FAC
:010295000068
:010296002245
:06032E00AB2FE4FD7F0F80
:100334008F368D378B38E538B40119C292FD7F02B0
:10034400120003AD38AF36120003AD38AF371200D8
:1003540003D29222E538B40218C297FD7F0212003C
:1003640003AD38AF36120003AD38AF37120003D2F5
:020374009722CE
:0403BB008F368D37B5
:1003BF00E537B40119C2927F03120003AD37AF3690
:1003CF00120003AF371205798F38D292801DE537AF
:1003DF00B40218C297FD7F03120003AD37AF361278
:0D03EF000003AF371205798F38D297AF3871
:0103FC0022DE
:1004C700E4FDFCC290EF30E704D2918002C291D2E2
:1004D70090EF25E0FF0DBD00010CED64084C70E3C3
:0104E70022F2
:1004E800E4FDFCC294EF30E704D2958002C295D2B5
:1004F80094EF25E0FF0DBD00010CED64084C70E39E
:0105080022D0
:10050900D290E4FDFCC290EF25E0FFA293E43342D0
:0E05190007D2900DBD00010CED64084C70E798
:0105270022B1
:10052800D294E4FDFCC294EF25E0FFA296E43342A6
:0E05380007D2940DBD00010CED64084C70E775
:010546002292
:0D000300BD01030204C7BD02031204E82280
:10057900BF0107120509AE078008BF020512052849
:04058900AE07AF0604
:01058D00224B
:100565000A2400000000000000000000012E000227
:0305750021000062
:10058E00759850758920758BFD758DFDD28ED2AC08
:03059E00D2AF22B7
:100547007D647C00EF1FAA0670011E4A600DED1D39
:0B055700AA0470011C4A60EC0080F355
:010562002276
:090016008F997F017E000205476D
:06043A008B2F8A3089318E
:10044000EDD39400402CAB2FAA30A931853382859F
:1004500032831201EE60180533E533AE32700205C7
:100460003214F5828E831201EEFF12001680D7AF90
:0404700033227F00B4
:010474002265
:100475008B2F8A308931AB2FAA30A9311201D56073
:1004850016F5997F017E0012054774012531F53176
:10049500E43530F53080DFE52EB401FBE4F52E229E
:0603FD008B2F8A308931CC
:10040300E4FFFEE524602D74242FF8E66014AB2F7F
:10041300AA30A9318F828E8312021B0FBF00010EF7
:1004230080E5AB2FAA30A9318F828E83E412021BA1
:06043300E4F524227F0025
:0104390022A0
:030023000203765F
:09037600C0E0C0D075D000C00049
:10037F0030982DC298859923E523642360100522B8
:10038F00E52270020521142424F8A6238017752E68
:10039F000174242522F8760075210075220080054E
:0503AF00309902C29923
:0703B400D000D0D0D0E032F0
:1000D800020158E493A3F8E493A34003F68001F2E5
:1000E80008DFF48029E493A3F85407240CC8C33329
:1000F800C4540F4420C8834004F456800146F6DFF8
:10010800E4800B0102040810204080900563E47E1F
:10011800019360BCA3FF543F30E509541FFEE493EC
:10012800A360010ECF54C025E060A840B8E493A3B3
:10013800FAE493A3F8E493A3C8C582C8CAC583CADE
:10014800F0A3C8C582C8CAC583CADFE9DEE780BE96
:010578000082
:1001D500BB010689828A83E0225002E722BBFE0228
:0901E500E32289828A83E493225B
:1001EE00BB010CE58229F582E5833AF583E02250C6
:1001FE0006E92582F8E622BBFE06E92582F8E22210
:0D020E00E58229F582E5833AF583E4932229
:10021B00F8BB010DE58229F582E5833AF583E8F019
:10022B00225006E92582C8F622BBFE05E92582C8C5
:02023B00F222AD
:00000001FF
