:0300000002018872
:0C018800787FE4F6D8FD7581390201CFC4
:10027C0043414E636D643A006661696C6520777228
:10028C0069746520746F204D4350323531355F31C0
:10029C000D0A006661696C65207265616420667286
:1002AC006F6D204D4350323531355F320D0A006E83
:1002BC006F207265636965766520636D64000D0A55
:1002CC007973232000756E6B6E6F7720636D6400FD
:0205D700C10061
:07060000D28AD2AAD2AF2278
:1000FA00E4F52F1205ED1206007F011200267F0299
:10010A001200267BFF7A0279CA1204CA7B007A009F
:10011A00790812048D8F2FE52FC39401500A7BFFB3
:10012A007A0279BB7D0F80397B007A0079087D01DC
:10013A0012033AEFC39401500A7BFF7A0279847D55
:10014A001B801E3000FDC2007B007A0079127D02FE
:10015A001202DCEFC39401500D7BFF7A02799F7D76
:10016A001C12040F809D7BFF7A02797C7D0A12049F
:0E017A000F7B007A0079127D0A12040F808537
:03001300020010D8
:03001000D20032E9
:1004FA008F32E532B4010CC2927D017FC012000333
:10050A00D29222E532B4020BC2977D027FC012005A
:04051A0003D297224F
:020026008F3019
:10002800E4F5311204FA7F017E001205A4AB307D9D
:10003800807F0F120388AD307F0E12044F8F31E599
:1000480031C4540F2430FF120016AB307D447F2A90
:10005800120388AB307DBA7F29120388AB307D4705
:100068007F28120388AB307D117F30120388AB30B4
:100078007DFF7F31120388AB30E4FD7F32120388A5
:10008800AB30E4FD7F61120388AB30E4FD7F621280
:100098000388AB307D607F60120388AB307DFFE45E
:1000A800FF120388AB30E4FD7F01120388AB307D7B
:1000B800FF7F20120388AB307DFF7F21120388ABBE
:1000C800307D017F2B120388AB30E4FD7F2C1203B7
:1000D80088120382AD307F0E12044F8F31E531C490
:1000E800540F2430FF120016E53154E06003120368
:0100F8008285
:0100F90022E4
:08033A008D338B308A318932CA
:10034200E4F5341202146035AB30AA31A932853497
:100352008275830012022DFD600EE5342436FFAB58
:1003620033120388053480E0AB33AD347F3512039A
:0F037200887B017D197F30120388AF34227F0012
:010381002259
:0802DC008B308A3189328D3329
:1002E400E4F534F535F5367F2C12044F8F36E536B8
:1002F40030E040AD337F6512044F8F3453340FE543
:1003040035C39534501EE5352466FFAD3312044FD2
:10031400AB30AA31A932853582758300EF12025AB7
:10032400053580DBE53654FEFDAB337F2C120388A4
:05033400AF34227F0040
:0103390022A1
:06038200AB30E4FD7F0F2B
:100388008F378D388B39E539B40119C292FD7F0258
:10039800120003AD39AF37120003AD39AF38120080
:1003A80003D29222E539B40218C297FD7F021200E7
:1003B80003AD39AF37120003AD39AF38120003D29D
:0203C80097227A
:04044F008F378D381E
:10045300E4FFE538B40117C2927F03120003AD38FD
:10046300AF37120003AF381205C0D292801BE538B4
:10047300B40216C297FD7F03120003AD38AF3712E3
:090483000003AF381205C0D29746
:01048C00224D
:10051E00E4FDFCC290EF30E704D2918002C291D28A
:10052E0090EF25E0FF0DBD00010CED64084C70E36B
:02053E00C29069
:010540002298
:10054100E4FDFCC294EF30E704D2958002C295D25B
:1005510094EF25E0FF0DBD00010CED64084C70E344
:02056100C29046
:010563002275
:10056400E4FFFDFCC290D290EF25E0FFA293E433B8
:0F0574004207C2900DBD00010CED64084C70E70A
:010583002255
:10058400E4FFFDFCC294D294EF25E0FFA296E4338D
:0F0594004207C2940DBD00010CED64084C70E7E6
:0105A3002235
:0D000300BD010302051EBD020312054122CE
:1005C000E4FEBF0107120564AE078008BF020512F2
:0605D0000584AE07AF0632
:0105D6002202
:1005D9000A2400000000000000000000012E0002B3
:0305E900210000EE
:1005ED00759850758920758BFD758DFDD28ED2ACA9
:0305FD00D2AF2258
:1005A4007D647C00EF1FAA0670011E4A600DED1DDC
:0B05B400AA0470011C4A60EC0080F3F8
:0105BF002219
:090016008F997F017E000205A410
:06040F008B308A318932B6
:10041500E4F533F534EDD39400402CAB30AA31A983
:100425003285348285338312022D60180534E53414
:10043500AE337002053314F5828E8312022DFF123E
:09044500001680D7AF34227F00BD
:01044E00228B
:1004CA008B308A318932AB30AA31A93212021460D8
:1004DA0016F5997F017E001205A474012532F532C2
:1004EA00E43531F53180DFE52EB401FBE4F52E2247
:06048D008B308A31893238
:10049300E4FFFEE524602D74242FF8E66014AB30EE
:1004A300AA31A9328F828E8312025A0FBF00010E26
:1004B30080E5AB30AA31A9328F828E83E412025ACF
:0604C300E4F524227F0095
:0104C9002210
:030023000203CA0B
:0903CA00C0E0C0D075D000C000F5
:1003D30030982DC298859923E52364236010052264
:1003E300E52270020521142424F8A6238017752E14
:1003F3000174242522F876007521007522008005FA
:05040300309902C299CE
:07040800D000D0D0D0E0329B
:100194000200FAE493A3F8E493A34003F68001F287
:1001A40008DFF48029E493A3F85407240CC8C3336C
:1001B400C4540F4420C8834004F456800146F6DF3B
:1001C400E4800B01020408102040809005D7E47EEF
:1001D400019360BCA3FF543F30E509541FFEE49330
:1001E400A360010ECF54C025E060A840B8E493A3F7
:1001F400FAE493A3F8E493A3C8C582C8CAC583CA22
:10020400F0A3C8C582C8CAC583CADFE9DEE780BED9
:0105EC00000E
:10021400BB010689828A83E0225002E722BBFE02E8
:09022400E32289828A83E493221B
:10022D00BB010CE58229F582E5833AF583E0225086
:10023D0006E92582F8E622BBFE06E92582F8E222D0
:0D024D00E58229F582E5833AF583E49322EA
:10025A00F8BB010DE58229F582E5833AF583E8F0DA
:10026A00225006E92582C8F622BBFE05E92582C886
:02027A00F2226E
:00000001FF
